{
  "contractName": "greeter",
  "abi": [
    {
      "inputs": [],
      "name": "bal",
      "outputs": [
        {
          "internalType": "uint256",
          "name": "",
          "type": "uint256"
        }
      ],
      "stateMutability": "view",
      "type": "function",
      "constant": true
    },
    {
      "inputs": [
        {
          "internalType": "uint256",
          "name": "q",
          "type": "uint256"
        }
      ],
      "name": "initialize",
      "outputs": [],
      "stateMutability": "nonpayable",
      "type": "function"
    },
    {
      "inputs": [
        {
          "internalType": "uint256",
          "name": "amt",
          "type": "uint256"
        }
      ],
      "name": "withdraw",
      "outputs": [],
      "stateMutability": "nonpayable",
      "type": "function"
    }
  ],
  "bytecode": "0x608060405234801561001057600080fd5b50610386806100206000396000f3fe608060405234801561001057600080fd5b50600436106100415760003560e01c80632e1a7d4d146100465780633d79d1c814610062578063fe4b84df14610080575b600080fd5b610060600480360381019061005b91906101e2565b61009c565b005b61006a6100b3565b60405161007791906102a0565b60405180910390f35b61009a600480360381019061009591906101e2565b6100b9565b005b806001546100aa91906102cc565b60018190555050565b60015481565b600060019054906101000a900460ff16806100d857506100d76101a9565b5b806100ee575060008054906101000a900460ff16155b61012d576040517f08c379a000000000000000000000000000000000000000000000000000000000815260040161012490610280565b60405180910390fd5b60008060019054906101000a900460ff16159050801561017d576001600060016101000a81548160ff02191690831515021790555060016000806101000a81548160ff0219169083151502179055505b8160018190555080156101a55760008060016101000a81548160ff0219169083151502179055505b5050565b60006101b4306101ba565b15905090565b600080823b905060008111915050919050565b6000813590506101dc81610339565b92915050565b6000602082840312156101f457600080fd5b6000610202848285016101cd565b91505092915050565b6000610218602e836102bb565b91507f496e697469616c697a61626c653a20636f6e747261637420697320616c72656160008301527f647920696e697469616c697a65640000000000000000000000000000000000006020830152604082019050919050565b61027a81610300565b82525050565b600060208201905081810360008301526102998161020b565b9050919050565b60006020820190506102b56000830184610271565b92915050565b600082825260208201905092915050565b60006102d782610300565b91506102e283610300565b9250828210156102f5576102f461030a565b5b828203905092915050565b6000819050919050565b7f4e487b7100000000000000000000000000000000000000000000000000000000600052601160045260246000fd5b61034281610300565b811461034d57600080fd5b5056fea2646970667358221220185cc91d150ae3e0ee6ddc37308562e6603dabb2baa2f4422077f17cb68b618364736f6c63430008000033",
  "immutableReferences": {},
  "source": "\r\n// SPDX-License-Identifier: MIT\r\nimport \"./Initializable.sol\";\r\n\r\npragma solidity ^0.8.0;\r\n\r\ncontract greeter is Initializable{\r\n    \r\n   uint public bal;\r\n\r\n\r\n    function initialize(uint q) public initializer{\r\n     bal = q; \r\n    }\r\n\r\n    function withdraw(uint amt) public{\r\n        bal = bal - amt;\r\n    }\r\n\r\n\r\n}",
  "sourcePath": "C:/Users/Tommy/truffle upgrade/contracts/Greeter.sol",
  "compiler": {
    "name": "solc",
    "version": "0.8.0+commit.c7dfd78e.Emscripten.clang"
  },
  "schemaVersion": "3.3.3",
  "updatedAt": "2021-02-08T21:19:47.552Z",
  "networkType": "ethereum",
  "devdoc": {
    "kind": "dev",
    "methods": {},
    "version": 1
  },
  "userdoc": {
    "kind": "user",
    "methods": {},
    "version": 1
  }
}