{
  "contractName": "greeter1",
  "abi": [
    {
      "inputs": [],
      "name": "bal",
      "outputs": [
        {
          "internalType": "uint256",
          "name": "",
          "type": "uint256"
        }
      ],
      "stateMutability": "view",
      "type": "function",
      "constant": true
    },
    {
      "inputs": [
        {
          "internalType": "uint256",
          "name": "q",
          "type": "uint256"
        }
      ],
      "name": "initialize",
      "outputs": [],
      "stateMutability": "nonpayable",
      "type": "function"
    },
    {
      "inputs": [
        {
          "internalType": "uint256",
          "name": "amt",
          "type": "uint256"
        }
      ],
      "name": "withdraw",
      "outputs": [],
      "stateMutability": "nonpayable",
      "type": "function"
    },
    {
      "inputs": [
        {
          "internalType": "uint256",
          "name": "amt",
          "type": "uint256"
        }
      ],
      "name": "Deposit",
      "outputs": [],
      "stateMutability": "nonpayable",
      "type": "function"
    }
  ],
  "bytecode": "0x608060405234801561001057600080fd5b5061041a806100206000396000f3fe608060405234801561001057600080fd5b506004361061004c5760003560e01c80632e1a7d4d146100515780633d79d1c81461006d5780634d6ce1e51461008b578063fe4b84df146100a7575b600080fd5b61006b60048036038101906100669190610220565b6100c3565b005b6100756100da565b60405161008291906102de565b60405180910390f35b6100a560048036038101906100a09190610220565b6100e0565b005b6100c160048036038101906100bc9190610220565b6100f7565b005b806001546100d19190610360565b60018190555050565b60015481565b806001546100ee919061030a565b60018190555050565b600060019054906101000a900460ff168061011657506101156101e7565b5b8061012c575060008054906101000a900460ff16155b61016b576040517f08c379a0000000000000000000000000000000000000000000000000000000008152600401610162906102be565b60405180910390fd5b60008060019054906101000a900460ff1615905080156101bb576001600060016101000a81548160ff02191690831515021790555060016000806101000a81548160ff0219169083151502179055505b8160018190555080156101e35760008060016101000a81548160ff0219169083151502179055505b5050565b60006101f2306101f8565b15905090565b600080823b905060008111915050919050565b60008135905061021a816103cd565b92915050565b60006020828403121561023257600080fd5b60006102408482850161020b565b91505092915050565b6000610256602e836102f9565b91507f496e697469616c697a61626c653a20636f6e747261637420697320616c72656160008301527f647920696e697469616c697a65640000000000000000000000000000000000006020830152604082019050919050565b6102b881610394565b82525050565b600060208201905081810360008301526102d781610249565b9050919050565b60006020820190506102f360008301846102af565b92915050565b600082825260208201905092915050565b600061031582610394565b915061032083610394565b9250827fffffffffffffffffffffffffffffffffffffffffffffffffffffffffffffffff038211156103555761035461039e565b5b828201905092915050565b600061036b82610394565b915061037683610394565b9250828210156103895761038861039e565b5b828203905092915050565b6000819050919050565b7f4e487b7100000000000000000000000000000000000000000000000000000000600052601160045260246000fd5b6103d681610394565b81146103e157600080fd5b5056fea2646970667358221220c4bac727a2b59f692c5023773e128b255cb380369930ae73bd280f570dbc0bee64736f6c63430008000033",
  "immutableReferences": {},
  "source": "\r\n// SPDX-License-Identifier: MIT\r\nimport \"./Initializable.sol\";\r\n\r\npragma solidity ^0.8.0;\r\n\r\ncontract greeter1 is Initializable{\r\n    \r\n   uint public bal;\r\n\r\n\r\n    function initialize(uint q) public initializer{\r\n     bal = q; \r\n    }\r\n\r\n    function withdraw(uint amt) public{\r\n        bal = bal - amt;\r\n    }\r\n\r\n    function Deposit(uint amt) public{\r\n        bal = bal + amt;\r\n    }\r\n}",
  "sourcePath": "C:/Users/Tommy/truffle upgrade/contracts/greeter1.sol",
  "compiler": {
    "name": "solc",
    "version": "0.8.0+commit.c7dfd78e.Emscripten.clang"
  },
  "schemaVersion": "3.3.3",
  "updatedAt": "2021-02-08T21:19:47.557Z",
  "networkType": "ethereum",
  "devdoc": {
    "kind": "dev",
    "methods": {},
    "version": 1
  },
  "userdoc": {
    "kind": "user",
    "methods": {},
    "version": 1
  }
}