{
  "contractName": "Account",
  "abi": [
    {
      "constant": true,
      "inputs": [],
      "name": "owner",
      "outputs": [
        {
          "internalType": "string",
          "name": "",
          "type": "string"
        }
      ],
      "payable": false,
      "stateMutability": "view",
      "type": "function"
    },
    {
      "constant": false,
      "inputs": [],
      "name": "destroy",
      "outputs": [],
      "payable": false,
      "stateMutability": "nonpayable",
      "type": "function"
    }
  ],
  "bytecode": "0x60806040526040518060400160405280600781526020017f4163636f756e74000000000000000000000000000000000000000000000000008152506000908051906020019061004f929190610062565b5034801561005c57600080fd5b50610107565b828054600181600116156101000203166002900490600052602060002090601f016020900481019282601f106100a357805160ff19168380011785556100d1565b828001600101855582156100d1579182015b828111156100d05782518255916020019190600101906100b5565b5b5090506100de91906100e2565b5090565b61010491905b808211156101005760008160009055506001016100e8565b5090565b90565b6101b4806101166000396000f3fe608060405234801561001057600080fd5b50600436106100365760003560e01c806383197ef01461003b5780638da5cb5b14610045575b600080fd5b6100436100c8565b005b61004d6100e1565b6040518080602001828103825283818151815260200191508051906020019080838360005b8381101561008d578082015181840152602081019050610072565b50505050905090810190601f1680156100ba5780820380516001836020036101000a031916815260200191505b509250505060405180910390f35b3373ffffffffffffffffffffffffffffffffffffffff16ff5b60008054600181600116156101000203166002900480601f0160208091040260200160405190810160405280929190818152602001828054600181600116156101000203166002900480156101775780601f1061014c57610100808354040283529160200191610177565b820191906000526020600020905b81548152906001019060200180831161015a57829003601f168201915b50505050508156fea265627a7a72315820da45df422713e9ca0934dc529fb71f182b958a91969cd121b904c4dff76555e064736f6c63430005100032",
  "source": "//SPDX-License-Identifier: MIT\npragma solidity ^0.5.16;\nimport \"@openzeppelin/upgrades-core/contracts/Initializable.sol\";\n\n/// @title A bank\n/// @author Tommy\n\ncontract Account{\n    string public owner= \"Account\";\n    function destroy() public {\n        selfdestruct(msg.sender);\n    }\n    \n}\n\ncontract pd9{\n\n  Account public deployed;\n    \n   int public bal=0;\n   \n   address payable owner;\n   \n    modifier onlyOwner() {\n      require(msg.sender == owner, \"You are not the owner!\" );\n      _;\n   }\n   \n    \n    function OwnerAccount() public view returns (string memory){\n        return deployed.owner();\n    } \n    function DestroyAccount() public{\n        deployed.destroy(); \n        deployed= Account(address(0));\n    }\n    \n    function Deploy() public returns(Account){\n        // deployed = new Account{salt: 0x00}();\n        return deployed;\n    }\n      \n\n    \n    function get_balance() public view returns(int){\n    return bal; \n    \n    }\n    ///@param amt the number of the amount that is given  \n    \n    function withdraw(int amt) external onlyOwner(){\n        bal = bal - amt;\n    }\n\n    function Deposit(int amt) public{\n        bal = bal + amt;\n    }\n}",
  "sourcePath": "C:/Users/Tommy/pd-9/contracts/pd9.sol",
  "compiler": {
    "name": "solc",
    "version": "0.5.16+commit.9c3226ce.Emscripten.clang"
  },
  "schemaVersion": "3.3.3",
  "updatedAt": "2021-01-28T19:29:33.012Z",
  "devdoc": {
    "author": "Tommy",
    "methods": {},
    "title": "A bank"
  },
  "userdoc": {
    "methods": {}
  }
}