{
  "contractName": "Bank",
  "abi": [
    {
      "constant": true,
      "inputs": [],
      "name": "bal",
      "outputs": [
        {
          "internalType": "int256",
          "name": "",
          "type": "int256"
        }
      ],
      "payable": false,
      "stateMutability": "view",
      "type": "function"
    },
    {
      "constant": true,
      "inputs": [],
      "name": "deployed",
      "outputs": [
        {
          "internalType": "contract Account",
          "name": "",
          "type": "address"
        }
      ],
      "payable": false,
      "stateMutability": "view",
      "type": "function"
    },
    {
      "constant": true,
      "inputs": [],
      "name": "OwnerAccount",
      "outputs": [
        {
          "internalType": "string",
          "name": "",
          "type": "string"
        }
      ],
      "payable": false,
      "stateMutability": "view",
      "type": "function"
    },
    {
      "constant": false,
      "inputs": [],
      "name": "DestroyAccount",
      "outputs": [],
      "payable": false,
      "stateMutability": "nonpayable",
      "type": "function"
    },
    {
      "constant": false,
      "inputs": [],
      "name": "Deploy",
      "outputs": [
        {
          "internalType": "contract Account",
          "name": "",
          "type": "address"
        }
      ],
      "payable": false,
      "stateMutability": "nonpayable",
      "type": "function"
    },
    {
      "constant": true,
      "inputs": [],
      "name": "get_balance",
      "outputs": [
        {
          "internalType": "int256",
          "name": "",
          "type": "int256"
        }
      ],
      "payable": false,
      "stateMutability": "view",
      "type": "function"
    },
    {
      "constant": false,
      "inputs": [
        {
          "internalType": "int256",
          "name": "amt",
          "type": "int256"
        }
      ],
      "name": "withdraw",
      "outputs": [],
      "payable": false,
      "stateMutability": "nonpayable",
      "type": "function"
    },
    {
      "constant": false,
      "inputs": [
        {
          "internalType": "int256",
          "name": "amt",
          "type": "int256"
        }
      ],
      "name": "Deposit",
      "outputs": [],
      "payable": false,
      "stateMutability": "nonpayable",
      "type": "function"
    }
  ],
  "bytecode": "0x6080604052600060015534801561001557600080fd5b506105e3806100256000396000f3fe608060405234801561001057600080fd5b50600436106100885760003560e01c8063c1cfb99a1161005b578063c1cfb99a14610111578063d9659eff1461012f578063e5a2805414610179578063f905c15a146101fc57610088565b80633d79d1c81461008d5780635fe38363146100ab5780637e62eab8146100b5578063bc6e679f146100e3575b600080fd5b610095610246565b6040518082815260200191505060405180910390f35b6100b361024c565b005b6100e1600480360360208110156100cb57600080fd5b8101908080359060200190929190505050610310565b005b61010f600480360360208110156100f957600080fd5b81019080803590602001909291905050506103e1565b005b6101196103ef565b6040518082815260200191505060405180910390f35b6101376103f9565b604051808273ffffffffffffffffffffffffffffffffffffffff1673ffffffffffffffffffffffffffffffffffffffff16815260200191505060405180910390f35b610181610422565b6040518080602001828103825283818151815260200191508051906020019080838360005b838110156101c15780820151818401526020810190506101a6565b50505050905090810190601f1680156101ee5780820380516001836020036101000a031916815260200191505b509250505060405180910390f35b610204610589565b604051808273ffffffffffffffffffffffffffffffffffffffff1673ffffffffffffffffffffffffffffffffffffffff16815260200191505060405180910390f35b60015481565b6000809054906101000a900473ffffffffffffffffffffffffffffffffffffffff1673ffffffffffffffffffffffffffffffffffffffff166383197ef06040518163ffffffff1660e01b8152600401600060405180830381600087803b1580156102b557600080fd5b505af11580156102c9573d6000803e3d6000fd5b5050505060008060006101000a81548173ffffffffffffffffffffffffffffffffffffffff021916908373ffffffffffffffffffffffffffffffffffffffff160217905550565b600260009054906101000a900473ffffffffffffffffffffffffffffffffffffffff1673ffffffffffffffffffffffffffffffffffffffff163373ffffffffffffffffffffffffffffffffffffffff16146103d3576040517f08c379a00000000000000000000000000000000000000000000000000000000081526004018080602001828103825260168152602001807f596f7520617265206e6f7420746865206f776e6572210000000000000000000081525060200191505060405180910390fd5b806001540360018190555050565b806001540160018190555050565b6000600154905090565b60008060009054906101000a900473ffffffffffffffffffffffffffffffffffffffff16905090565b60606000809054906101000a900473ffffffffffffffffffffffffffffffffffffffff1673ffffffffffffffffffffffffffffffffffffffff16638da5cb5b6040518163ffffffff1660e01b815260040160006040518083038186803b15801561048b57600080fd5b505afa15801561049f573d6000803e3d6000fd5b505050506040513d6000823e3d601f19601f8201168201806040525060208110156104c957600080fd5b81019080805160405193929190846401000000008211156104e957600080fd5b838201915060208201858111156104ff57600080fd5b825186600182028301116401000000008211171561051c57600080fd5b8083526020830192505050908051906020019080838360005b83811015610550578082015181840152602081019050610535565b50505050905090810190601f16801561057d5780820380516001836020036101000a031916815260200191505b50604052505050905090565b6000809054906101000a900473ffffffffffffffffffffffffffffffffffffffff168156fea265627a7a7231582097572b34723f581ea2351c048aca0a0e46a4c85026d60791cb921e865b6d83de64736f6c63430005100032",
  "source": "//SPDX-License-Identifier: MIT\npragma solidity ^0.5.16;\nimport \"@openzeppelin/upgrades-core/contracts/Initializable.sol\";\n\n/// @title A bank\n/// @author Tommy\n\ncontract Account{\n    string public owner= \"Account\";\n    function destroy() public {\n        selfdestruct(msg.sender);\n    }\n    \n}\n\ncontract Bank{\n    \n\n    \n    Account public deployed;\n    \n   int public bal=0;\n   \n   \n   address payable owner;\n   \n    modifier onlyOwner() {\n      require(msg.sender == owner, \"You are not the owner!\" );\n      _;\n   }\n   \n    // constructor(){\n    //   owner = msg.sender;\n    // }\n    \n    function OwnerAccount() public view returns (string memory){\n        return deployed.owner();\n    } \n    function DestroyAccount() public{\n        deployed.destroy(); \n        deployed= Account(address(0));\n    }\n    \n    function Deploy() public returns(Account){\n        // deployed = new Account{salt: 0x00}();\n        return deployed;\n    }\n    \n\n    \n    function get_balance() public view returns(int){\n    return bal; \n    \n    }\n    /// @param amt the number of the amount that is given  \n    \n    function withdraw(int amt) external onlyOwner(){\n        bal = bal - amt;\n    }\n\n    function Deposit(int amt) public{\n        bal = bal + amt;\n    }\n}",
  "sourcePath": "C:/Users/Tommy/pd-9/contracts/pd9.sol",
  "compiler": {
    "name": "solc",
    "version": "0.5.16+commit.9c3226ce.Emscripten.clang"
  },
  "schemaVersion": "3.3.3",
  "updatedAt": "2021-01-18T15:04:27.353Z",
  "devdoc": {
    "methods": {
      "withdraw(int256)": {
        "params": {
          "amt": "the number of the amount that is given  "
        }
      }
    }
  },
  "userdoc": {
    "methods": {}
  }
}